{
  "_format": "hh-sol-artifact-1",
  "contractName": "MultiSigSafe",
  "sourceName": "contracts/MultiSigSafe.sol",
  "abi": [
    {
      "anonymous": false,
      "inputs": [
        {
          "indexed": false,
          "internalType": "uint256",
          "name": "safeId",
          "type": "uint256"
        },
        {
          "indexed": false,
          "internalType": "address",
          "name": "owner",
          "type": "address"
        },
        {
          "indexed": false,
          "internalType": "address",
          "name": "recipient",
          "type": "address"
        },
        {
          "indexed": false,
          "internalType": "uint256",
          "name": "deposit",
          "type": "uint256"
        },
        {
          "indexed": false,
          "internalType": "uint32",
          "name": "minimumApprovals",
          "type": "uint32"
        },
        {
          "indexed": false,
          "internalType": "address[]",
          "name": "approvers",
          "type": "address[]"
        }
      ],
      "name": "SafeCreated",
      "type": "event"
    },
    {
      "anonymous": false,
      "inputs": [
        {
          "indexed": false,
          "internalType": "address",
          "name": "reciepent",
          "type": "address"
        },
        {
          "indexed": false,
          "internalType": "uint256",
          "name": "amount",
          "type": "uint256"
        }
      ],
      "name": "transfered",
      "type": "event"
    },
    {
      "inputs": [
        {
          "internalType": "uint256",
          "name": "",
          "type": "uint256"
        }
      ],
      "name": "allSafes",
      "outputs": [
        {
          "internalType": "uint256",
          "name": "safeId",
          "type": "uint256"
        },
        {
          "internalType": "address",
          "name": "owner",
          "type": "address"
        },
        {
          "internalType": "address",
          "name": "recipient",
          "type": "address"
        },
        {
          "internalType": "uint256",
          "name": "deposit",
          "type": "uint256"
        },
        {
          "internalType": "uint32",
          "name": "minimumApprovals",
          "type": "uint32"
        },
        {
          "internalType": "uint32",
          "name": "approvalsCount",
          "type": "uint32"
        },
        {
          "internalType": "bool",
          "name": "status",
          "type": "bool"
        },
        {
          "internalType": "address",
          "name": "tokenAddress",
          "type": "address"
        }
      ],
      "stateMutability": "view",
      "type": "function"
    },
    {
      "inputs": [
        {
          "internalType": "uint256",
          "name": "safeId",
          "type": "uint256"
        }
      ],
      "name": "approve",
      "outputs": [
        {
          "internalType": "bool",
          "name": "",
          "type": "bool"
        }
      ],
      "stateMutability": "nonpayable",
      "type": "function"
    },
    {
      "inputs": [
        {
          "internalType": "address",
          "name": "recipient",
          "type": "address"
        },
        {
          "internalType": "uint256",
          "name": "deposit",
          "type": "uint256"
        },
        {
          "internalType": "uint32",
          "name": "minimumApprovals",
          "type": "uint32"
        },
        {
          "internalType": "address[]",
          "name": "approvers",
          "type": "address[]"
        }
      ],
      "name": "createSafeForNative",
      "outputs": [
        {
          "internalType": "uint256",
          "name": "",
          "type": "uint256"
        }
      ],
      "stateMutability": "payable",
      "type": "function"
    },
    {
      "inputs": [
        {
          "internalType": "address",
          "name": "recipient",
          "type": "address"
        },
        {
          "internalType": "uint256",
          "name": "deposit",
          "type": "uint256"
        },
        {
          "internalType": "uint32",
          "name": "minimumApprovals",
          "type": "uint32"
        },
        {
          "internalType": "address[]",
          "name": "approvers",
          "type": "address[]"
        },
        {
          "internalType": "address",
          "name": "tokenAddress",
          "type": "address"
        }
      ],
      "name": "createSafeForToken",
      "outputs": [
        {
          "internalType": "uint256",
          "name": "",
          "type": "uint256"
        }
      ],
      "stateMutability": "payable",
      "type": "function"
    },
    {
      "inputs": [
        {
          "internalType": "uint256",
          "name": "safeId",
          "type": "uint256"
        }
      ],
      "name": "getApprovers",
      "outputs": [
        {
          "internalType": "address[]",
          "name": "_approvers",
          "type": "address[]"
        }
      ],
      "stateMutability": "view",
      "type": "function"
    },
    {
      "inputs": [
        {
          "internalType": "uint256",
          "name": "",
          "type": "uint256"
        },
        {
          "internalType": "address",
          "name": "",
          "type": "address"
        }
      ],
      "name": "hasApproved",
      "outputs": [
        {
          "internalType": "bool",
          "name": "",
          "type": "bool"
        }
      ],
      "stateMutability": "view",
      "type": "function"
    },
    {
      "inputs": [
        {
          "internalType": "uint256",
          "name": "safeId",
          "type": "uint256"
        }
      ],
      "name": "isSafeActive",
      "outputs": [],
      "stateMutability": "view",
      "type": "function"
    },
    {
      "inputs": [
        {
          "internalType": "uint256",
          "name": "safeId",
          "type": "uint256"
        }
      ],
      "name": "terminateSafe",
      "outputs": [
        {
          "internalType": "bool",
          "name": "",
          "type": "bool"
        }
      ],
      "stateMutability": "nonpayable",
      "type": "function"
    },
    {
      "inputs": [],
      "name": "totalSafes",
      "outputs": [
        {
          "internalType": "uint256",
          "name": "",
          "type": "uint256"
        }
      ],
      "stateMutability": "view",
      "type": "function"
    }
  ],
  "bytecode": "0x608060405234801561001057600080fd5b50612bf7806100206000396000f3fe6080604052600436106100865760003560e01c80633c5ff66a116100595780633c5ff66a1461014c5780637dee1fb414610190578063a80edf1d146101c0578063b759f954146101fd578063c65df7941461023a57610086565b806306fe9c361461008b57806322fcd223146100b45780632358d5a8146100e45780632f82318614610121575b600080fd5b34801561009757600080fd5b506100b260048036038101906100ad9190611c56565b610277565b005b6100ce60048036038101906100c99190611e76565b6102f3565b6040516100db9190611f08565b60405180910390f35b3480156100f057600080fd5b5061010b60048036038101906101069190611f23565b6107fb565b6040516101189190611f7e565b60405180910390f35b34801561012d57600080fd5b5061013661082a565b6040516101439190611f08565b60405180910390f35b34801561015857600080fd5b50610173600480360381019061016e9190611c56565b610830565b604051610187989796959493929190611fb7565b60405180910390f35b6101aa60048036038101906101a59190612035565b610905565b6040516101b79190611f08565b60405180910390f35b3480156101cc57600080fd5b506101e760048036038101906101e29190611c56565b610e5e565b6040516101f49190611f7e565b60405180910390f35b34801561020957600080fd5b50610224600480360381019061021f9190611c56565b6110eb565b6040516102319190611f7e565b60405180910390f35b34801561024657600080fd5b50610261600480360381019061025c9190611c56565b6115dc565b60405161026e919061218a565b60405180910390f35b61028081611686565b6000600160008381526020019081526020016000209050600115158160060160009054906101000a900460ff161515146102ef576040517f08c379a00000000000000000000000000000000000000000000000000000000081526004016102e690612209565b60405180910390fd5b5050565b600083341015610338576040517f08c379a000000000000000000000000000000000000000000000000000000000815260040161032f90612275565b60405180910390fd5b8263ffffffff1682511015610382576040517f08c379a0000000000000000000000000000000000000000000000000000000008152600401610379906122e1565b60405180910390fd5b600073ffffffffffffffffffffffffffffffffffffffff168573ffffffffffffffffffffffffffffffffffffffff16036103f1576040517f08c379a00000000000000000000000000000000000000000000000000000000081526004016103e89061234d565b60405180910390fd5b6103fa856116ce565b610439576040517f08c379a0000000000000000000000000000000000000000000000000000000008152600401610430906123b9565b60405180910390fd5b61044282611747565b610481576040517f08c379a0000000000000000000000000000000000000000000000000000000008152600401610478906123b9565b60405180910390fd5b61048a826117fe565b6104c9576040517f08c379a00000000000000000000000000000000000000000000000000000000081526004016104c090612425565b60405180910390fd5b6000808154809291906104db90612474565b9190505550600060405180610120016040528060005481526020013373ffffffffffffffffffffffffffffffffffffffff1681526020018773ffffffffffffffffffffffffffffffffffffffff1681526020018681526020018563ffffffff168152602001600063ffffffff168152602001848152602001600115158152602001600073ffffffffffffffffffffffffffffffffffffffff1681525090508060016000805481526020019081526020016000206000820151816000015560208201518160010160006101000a81548173ffffffffffffffffffffffffffffffffffffffff021916908373ffffffffffffffffffffffffffffffffffffffff16021790555060408201518160020160006101000a81548173ffffffffffffffffffffffffffffffffffffffff021916908373ffffffffffffffffffffffffffffffffffffffff1602179055506060820151816003015560808201518160040160006101000a81548163ffffffff021916908363ffffffff16021790555060a08201518160040160046101000a81548163ffffffff021916908363ffffffff16021790555060c082015181600501908051906020019061069a929190611b65565b5060e08201518160060160006101000a81548160ff0219169083151502179055506101008201518160060160016101000a81548173ffffffffffffffffffffffffffffffffffffffff021916908373ffffffffffffffffffffffffffffffffffffffff16021790555090505060005b83518110156107a95760006002600080548152602001908152602001600020600086848151811061073d5761073c6124bc565b5b602002602001015173ffffffffffffffffffffffffffffffffffffffff1673ffffffffffffffffffffffffffffffffffffffff16815260200190815260200160002060006101000a81548160ff02191690831515021790555080806107a190612474565b915050610709565b507f0b17d694be573b7c77accb14f9e183dcf0d962796078a59c17d84c322fc0156160005433888888886040516107e5969594939291906124eb565b60405180910390a1600054915050949350505050565b60026020528160005260406000206020528060005260406000206000915091509054906101000a900460ff1681565b60005481565b60016020528060005260406000206000915090508060000154908060010160009054906101000a900473ffffffffffffffffffffffffffffffffffffffff16908060020160009054906101000a900473ffffffffffffffffffffffffffffffffffffffff16908060030154908060040160009054906101000a900463ffffffff16908060040160049054906101000a900463ffffffff16908060060160009054906101000a900460ff16908060060160019054906101000a900473ffffffffffffffffffffffffffffffffffffffff16905088565b60008363ffffffff1683511015610951576040517f08c379a0000000000000000000000000000000000000000000000000000000008152600401610948906122e1565b60405180910390fd5b600073ffffffffffffffffffffffffffffffffffffffff168673ffffffffffffffffffffffffffffffffffffffff16036109c0576040517f08c379a00000000000000000000000000000000000000000000000000000000081526004016109b79061234d565b60405180910390fd5b6109c9866116ce565b610a08576040517f08c379a00000000000000000000000000000000000000000000000000000000081526004016109ff906123b9565b60405180910390fd5b610a1183611747565b610a50576040517f08c379a0000000000000000000000000000000000000000000000000000000008152600401610a47906123b9565b60405180910390fd5b610a59836117fe565b610a98576040517f08c379a0000000000000000000000000000000000000000000000000000000008152600401610a8f90612425565b60405180910390fd5b610aa282866118ce565b610ae1576040517f08c379a0000000000000000000000000000000000000000000000000000000008152600401610ad89061259f565b60405180910390fd5b610aed8233308861199d565b610b2c576040517f08c379a0000000000000000000000000000000000000000000000000000000008152600401610b239061260b565b60405180910390fd5b600080815480929190610b3e90612474565b9190505550600060405180610120016040528060005481526020013373ffffffffffffffffffffffffffffffffffffffff1681526020018873ffffffffffffffffffffffffffffffffffffffff1681526020018781526020018663ffffffff168152602001600063ffffffff1681526020018581526020016001151581526020018473ffffffffffffffffffffffffffffffffffffffff1681525090508060016000805481526020019081526020016000206000820151816000015560208201518160010160006101000a81548173ffffffffffffffffffffffffffffffffffffffff021916908373ffffffffffffffffffffffffffffffffffffffff16021790555060408201518160020160006101000a81548173ffffffffffffffffffffffffffffffffffffffff021916908373ffffffffffffffffffffffffffffffffffffffff1602179055506060820151816003015560808201518160040160006101000a81548163ffffffff021916908363ffffffff16021790555060a08201518160040160046101000a81548163ffffffff021916908363ffffffff16021790555060c0820151816005019080519060200190610cfc929190611b65565b5060e08201518160060160006101000a81548160ff0219169083151502179055506101008201518160060160016101000a81548173ffffffffffffffffffffffffffffffffffffffff021916908373ffffffffffffffffffffffffffffffffffffffff16021790555090505060005b8451811015610e0b57600060026000805481526020019081526020016000206000878481518110610d9f57610d9e6124bc565b5b602002602001015173ffffffffffffffffffffffffffffffffffffffff1673ffffffffffffffffffffffffffffffffffffffff16815260200190815260200160002060006101000a81548160ff0219169083151502179055508080610e0390612474565b915050610d6b565b507f0b17d694be573b7c77accb14f9e183dcf0d962796078a59c17d84c322fc015616000543389898989604051610e47969594939291906124eb565b60405180910390a160005491505095945050505050565b600081610e6a81611686565b6001600082815260200190815260200160002060010160009054906101000a900473ffffffffffffffffffffffffffffffffffffffff1673ffffffffffffffffffffffffffffffffffffffff163373ffffffffffffffffffffffffffffffffffffffff1614610f0e576040517f08c379a0000000000000000000000000000000000000000000000000000000008152600401610f0590612677565b60405180910390fd5b610f1783611686565b610f2083610277565b6000600160008581526020019081526020016000209050600073ffffffffffffffffffffffffffffffffffffffff168160060160019054906101000a900473ffffffffffffffffffffffffffffffffffffffff1673ffffffffffffffffffffffffffffffffffffffff16036110455760003373ffffffffffffffffffffffffffffffffffffffff168260030154604051610fb9906126c8565b60006040518083038185875af1925050503d8060008114610ff6576040519150601f19603f3d011682016040523d82523d6000602084013e610ffb565b606091505b505090508061103f576040517f08c379a000000000000000000000000000000000000000000000000000000000815260040161103690612729565b60405180910390fd5b506110b9565b6110798160060160019054906101000a900473ffffffffffffffffffffffffffffffffffffffff163033846003015461199d565b6110b8576040517f08c379a00000000000000000000000000000000000000000000000000000000081526004016110af90612795565b60405180910390fd5b5b6000816003018190555060008160060160006101000a81548160ff021916908315150217905550600192505050919050565b60006110f682611686565b60006001600084815260200190815260200160002090506000805b82600501805490508110156111af573373ffffffffffffffffffffffffffffffffffffffff1683600501828154811061114d5761114c6124bc565b5b9060005260206000200160009054906101000a900473ffffffffffffffffffffffffffffffffffffffff1673ffffffffffffffffffffffffffffffffffffffff160361119c57600191506111af565b80806111a790612474565b915050611111565b50806111f0576040517f08c379a00000000000000000000000000000000000000000000000000000000081526004016111e790612801565b60405180910390fd5b6111f984610277565b6002600085815260200190815260200160002060003373ffffffffffffffffffffffffffffffffffffffff1673ffffffffffffffffffffffffffffffffffffffff16815260200190815260200160002060009054906101000a900460ff1615611297576040517f08c379a000000000000000000000000000000000000000000000000000000000815260040161128e9061286d565b60405180910390fd5b81600401600481819054906101000a900463ffffffff16809291906112bb9061288d565b91906101000a81548163ffffffff021916908363ffffffff160217905550508160040160009054906101000a900463ffffffff1663ffffffff168260040160049054906101000a900463ffffffff1663ffffffff16106115d157600073ffffffffffffffffffffffffffffffffffffffff168260060160019054906101000a900473ffffffffffffffffffffffffffffffffffffffff1673ffffffffffffffffffffffffffffffffffffffff16036114a85760008260020160009054906101000a900473ffffffffffffffffffffffffffffffffffffffff1673ffffffffffffffffffffffffffffffffffffffff1683600301546040516113bb906126c8565b60006040518083038185875af1925050503d80600081146113f8576040519150601f19603f3d011682016040523d82523d6000602084013e6113fd565b606091505b5050905080611441576040517f08c379a000000000000000000000000000000000000000000000000000000000815260040161143890612729565b60405180910390fd5b7f143d69bf67b6a4940e385436570698c0eee392469e51320d6db8637ca47ed1cf8360020160009054906101000a900473ffffffffffffffffffffffffffffffffffffffff16846003015460405161149a9291906128b9565b60405180910390a150611540565b6115008260060160019054906101000a900473ffffffffffffffffffffffffffffffffffffffff16308460020160009054906101000a900473ffffffffffffffffffffffffffffffffffffffff16856003015461199d565b61153f576040517f08c379a00000000000000000000000000000000000000000000000000000000081526004016115369061260b565b60405180910390fd5b5b60016002600086815260200190815260200160002060003373ffffffffffffffffffffffffffffffffffffffff1673ffffffffffffffffffffffffffffffffffffffff16815260200190815260200160002060006101000a81548160ff0219169083151502179055506000826003018190555060008260060160006101000a81548160ff0219169083151502179055505b600192505050919050565b606060006001600084815260200190815260200160002090508060050180548060200260200160405190810160405280929190818152602001828054801561167957602002820191906000526020600020905b8160009054906101000a900473ffffffffffffffffffffffffffffffffffffffff1673ffffffffffffffffffffffffffffffffffffffff168152602001906001019080831161162f575b5050505050915050919050565b6000548111156116cb576040517f08c379a00000000000000000000000000000000000000000000000000000000081526004016116c29061292e565b60405180910390fd5b50565b60008073ffffffffffffffffffffffffffffffffffffffff168273ffffffffffffffffffffffffffffffffffffffff160361173e576040517f08c379a00000000000000000000000000000000000000000000000000000000081526004016117359061299a565b60405180910390fd5b60019050919050565b600080600090505b82518110156117f457600073ffffffffffffffffffffffffffffffffffffffff16838281518110611783576117826124bc565b5b602002602001015173ffffffffffffffffffffffffffffffffffffffff16036117e1576040517f08c379a00000000000000000000000000000000000000000000000000000000081526004016117d89061299a565b60405180910390fd5b80806117ec90612474565b91505061174f565b5060019050919050565b600080600090505b82518110156118c357600060018261181e91906129ba565b90505b83518110156118af5783818151811061183d5761183c6124bc565b5b602002602001015173ffffffffffffffffffffffffffffffffffffffff1684838151811061186e5761186d6124bc565b5b602002602001015173ffffffffffffffffffffffffffffffffffffffff160361189c576000925050506118c9565b80806118a790612474565b915050611821565b5080806118bb90612474565b915050611806565b50600190505b919050565b600080839050828173ffffffffffffffffffffffffffffffffffffffff1663dd62ed3e33306040518363ffffffff1660e01b81526004016119109291906129ee565b602060405180830381865afa15801561192d573d6000803e3d6000fd5b505050506040513d601f19601f820116820180604052508101906119519190612a2c565b1015611992576040517f08c379a000000000000000000000000000000000000000000000000000000000815260040161198990612aa5565b60405180910390fd5b600191505092915050565b6000808590503073ffffffffffffffffffffffffffffffffffffffff168573ffffffffffffffffffffffffffffffffffffffff1603611a98578073ffffffffffffffffffffffffffffffffffffffff1663a9059cbb85856040518363ffffffff1660e01b8152600401611a119291906128b9565b6020604051808303816000875af1158015611a30573d6000803e3d6000fd5b505050506040513d601f19601f82011682018060405250810190611a549190612af1565b611a93576040517f08c379a0000000000000000000000000000000000000000000000000000000008152600401611a8a90612b6a565b60405180910390fd5b611b58565b8073ffffffffffffffffffffffffffffffffffffffff166323b872dd8686866040518463ffffffff1660e01b8152600401611ad593929190612b8a565b6020604051808303816000875af1158015611af4573d6000803e3d6000fd5b505050506040513d601f19601f82011682018060405250810190611b189190612af1565b611b57576040517f08c379a0000000000000000000000000000000000000000000000000000000008152600401611b4e90612b6a565b60405180910390fd5b5b6001915050949350505050565b828054828255906000526020600020908101928215611bde579160200282015b82811115611bdd5782518260006101000a81548173ffffffffffffffffffffffffffffffffffffffff021916908373ffffffffffffffffffffffffffffffffffffffff16021790555091602001919060010190611b85565b5b509050611beb9190611bef565b5090565b5b80821115611c08576000816000905550600101611bf0565b5090565b6000604051905090565b600080fd5b600080fd5b6000819050919050565b611c3381611c20565b8114611c3e57600080fd5b50565b600081359050611c5081611c2a565b92915050565b600060208284031215611c6c57611c6b611c16565b5b6000611c7a84828501611c41565b91505092915050565b600073ffffffffffffffffffffffffffffffffffffffff82169050919050565b6000611cae82611c83565b9050919050565b611cbe81611ca3565b8114611cc957600080fd5b50565b600081359050611cdb81611cb5565b92915050565b600063ffffffff82169050919050565b611cfa81611ce1565b8114611d0557600080fd5b50565b600081359050611d1781611cf1565b92915050565b600080fd5b6000601f19601f8301169050919050565b7f4e487b7100000000000000000000000000000000000000000000000000000000600052604160045260246000fd5b611d6b82611d22565b810181811067ffffffffffffffff82111715611d8a57611d89611d33565b5b80604052505050565b6000611d9d611c0c565b9050611da98282611d62565b919050565b600067ffffffffffffffff821115611dc957611dc8611d33565b5b602082029050602081019050919050565b600080fd5b6000611df2611ded84611dae565b611d93565b90508083825260208201905060208402830185811115611e1557611e14611dda565b5b835b81811015611e3e5780611e2a8882611ccc565b845260208401935050602081019050611e17565b5050509392505050565b600082601f830112611e5d57611e5c611d1d565b5b8135611e6d848260208601611ddf565b91505092915050565b60008060008060808587031215611e9057611e8f611c16565b5b6000611e9e87828801611ccc565b9450506020611eaf87828801611c41565b9350506040611ec087828801611d08565b925050606085013567ffffffffffffffff811115611ee157611ee0611c1b565b5b611eed87828801611e48565b91505092959194509250565b611f0281611c20565b82525050565b6000602082019050611f1d6000830184611ef9565b92915050565b60008060408385031215611f3a57611f39611c16565b5b6000611f4885828601611c41565b9250506020611f5985828601611ccc565b9150509250929050565b60008115159050919050565b611f7881611f63565b82525050565b6000602082019050611f936000830184611f6f565b92915050565b611fa281611ca3565b82525050565b611fb181611ce1565b82525050565b600061010082019050611fcd600083018b611ef9565b611fda602083018a611f99565b611fe76040830189611f99565b611ff46060830188611ef9565b6120016080830187611fa8565b61200e60a0830186611fa8565b61201b60c0830185611f6f565b61202860e0830184611f99565b9998505050505050505050565b600080600080600060a0868803121561205157612050611c16565b5b600061205f88828901611ccc565b955050602061207088828901611c41565b945050604061208188828901611d08565b935050606086013567ffffffffffffffff8111156120a2576120a1611c1b565b5b6120ae88828901611e48565b92505060806120bf88828901611ccc565b9150509295509295909350565b600081519050919050565b600082825260208201905092915050565b6000819050602082019050919050565b61210181611ca3565b82525050565b600061211383836120f8565b60208301905092915050565b6000602082019050919050565b6000612137826120cc565b61214181856120d7565b935061214c836120e8565b8060005b8381101561217d5781516121648882612107565b975061216f8361211f565b925050600181019050612150565b5085935050505092915050565b600060208201905081810360008301526121a4818461212c565b905092915050565b600082825260208201905092915050565b7f73616665206e6f74206163746976652000000000000000000000000000000000600082015250565b60006121f36010836121ac565b91506121fe826121bd565b602082019050919050565b60006020820190508181036000830152612222816121e6565b9050919050565b7f596f75206e65656420746f207370656e64206d6f726500000000000000000000600082015250565b600061225f6016836121ac565b915061226a82612229565b602082019050919050565b6000602082019050818103600083015261228e81612252565b9050919050565b7f4e6f7420656e6f75676820617070726f76657273000000000000000000000000600082015250565b60006122cb6014836121ac565b91506122d682612295565b602082019050919050565b600060208201905081810360008301526122fa816122be565b9050919050565b7f526563697069656e7420616464726573732063616e6e6f74206265207a65726f600082015250565b60006123376020836121ac565b915061234282612301565b602082019050919050565b600060208201905081810360008301526123668161232a565b9050919050565b7f6e6f7420616e2061646472657373000000000000000000000000000000000000600082015250565b60006123a3600e836121ac565b91506123ae8261236d565b602082019050919050565b600060208201905081810360008301526123d281612396565b9050919050565b7f617070726f76657273206e6f7420756e69717565000000000000000000000000600082015250565b600061240f6014836121ac565b915061241a826123d9565b602082019050919050565b6000602082019050818103600083015261243e81612402565b9050919050565b7f4e487b7100000000000000000000000000000000000000000000000000000000600052601160045260246000fd5b600061247f82611c20565b91507fffffffffffffffffffffffffffffffffffffffffffffffffffffffffffffffff82036124b1576124b0612445565b5b600182019050919050565b7f4e487b7100000000000000000000000000000000000000000000000000000000600052603260045260246000fd5b600060c0820190506125006000830189611ef9565b61250d6020830188611f99565b61251a6040830187611f99565b6125276060830186611ef9565b6125346080830185611fa8565b81810360a0830152612546818461212c565b9050979650505050505050565b7f6e6f20616c6c6f77656e63652000000000000000000000000000000000000000600082015250565b6000612589600d836121ac565b915061259482612553565b602082019050919050565b600060208201905081810360008301526125b88161257c565b9050919050565b7f7472616e73666572206661696c65640000000000000000000000000000000000600082015250565b60006125f5600f836121ac565b9150612600826125bf565b602082019050919050565b60006020820190508181036000830152612624816125e8565b9050919050565b7f4e6f7420746865206f776e657200000000000000000000000000000000000000600082015250565b6000612661600d836121ac565b915061266c8261262b565b602082019050919050565b6000602082019050818103600083015261269081612654565b9050919050565b600081905092915050565b50565b60006126b2600083612697565b91506126bd826126a2565b600082019050919050565b60006126d3826126a5565b9150819050919050565b7f43616c6c206661696c6564000000000000000000000000000000000000000000600082015250565b6000612713600b836121ac565b915061271e826126dd565b602082019050919050565b6000602082019050818103600083015261274281612706565b9050919050565b7f7472616e73666572206669616c65640000000000000000000000000000000000600082015250565b600061277f600f836121ac565b915061278a82612749565b602082019050919050565b600060208201905081810360008301526127ae81612772565b9050919050565b7f4e6f7420616e20617070726f7665720000000000000000000000000000000000600082015250565b60006127eb600f836121ac565b91506127f6826127b5565b602082019050919050565b6000602082019050818103600083015261281a816127de565b9050919050565b7f416c726561647920617070726f76656400000000000000000000000000000000600082015250565b60006128576010836121ac565b915061286282612821565b602082019050919050565b600060208201905081810360008301526128868161284a565b9050919050565b600061289882611ce1565b915063ffffffff82036128ae576128ad612445565b5b600182019050919050565b60006040820190506128ce6000830185611f99565b6128db6020830184611ef9565b9392505050565b7f7361666520646f65736e6f742065787369737400000000000000000000000000600082015250565b60006129186013836121ac565b9150612923826128e2565b602082019050919050565b600060208201905081810360008301526129478161290b565b9050919050565b7f496e76616c696420616464726573730000000000000000000000000000000000600082015250565b6000612984600f836121ac565b915061298f8261294e565b602082019050919050565b600060208201905081810360008301526129b381612977565b9050919050565b60006129c582611c20565b91506129d083611c20565b92508282019050808211156129e8576129e7612445565b5b92915050565b6000604082019050612a036000830185611f99565b612a106020830184611f99565b9392505050565b600081519050612a2681611c2a565b92915050565b600060208284031215612a4257612a41611c16565b5b6000612a5084828501612a17565b91505092915050565b7f496e73756666696369656e7420616c6c6f77616e636500000000000000000000600082015250565b6000612a8f6016836121ac565b9150612a9a82612a59565b602082019050919050565b60006020820190508181036000830152612abe81612a82565b9050919050565b612ace81611f63565b8114612ad957600080fd5b50565b600081519050612aeb81612ac5565b92915050565b600060208284031215612b0757612b06611c16565b5b6000612b1584828501612adc565b91505092915050565b7f747278206661696c000000000000000000000000000000000000000000000000600082015250565b6000612b546008836121ac565b9150612b5f82612b1e565b602082019050919050565b60006020820190508181036000830152612b8381612b47565b9050919050565b6000606082019050612b9f6000830186611f99565b612bac6020830185611f99565b612bb96040830184611ef9565b94935050505056fea2646970667358221220f5ccc1c2c341d97a5366074e5bf903b0f68b689ee80aa083ee7d29edde3a0e8c64736f6c63430008140033",
  "linkReferences": {},
  "deployedLinkReferences": {}
}