{
  "_format": "hh-sol-artifact-1",
  "contractName": "BatchTransfers",
  "sourceName": "contracts/batchTranfers.sol",
  "abi": [
    {
      "inputs": [
        {
          "internalType": "address[]",
          "name": "recipients",
          "type": "address[]"
        },
        {
          "internalType": "uint256",
          "name": "amount",
          "type": "uint256"
        }
      ],
      "name": "nativeBatchTransfer",
      "outputs": [
        {
          "internalType": "bool",
          "name": "",
          "type": "bool"
        }
      ],
      "stateMutability": "payable",
      "type": "function"
    },
    {
      "inputs": [
        {
          "internalType": "address[]",
          "name": "recipients",
          "type": "address[]"
        },
        {
          "internalType": "uint256",
          "name": "amount",
          "type": "uint256"
        },
        {
          "internalType": "address",
          "name": "tokenAddress",
          "type": "address"
        }
      ],
      "name": "tokenBatchTransfer",
      "outputs": [
        {
          "internalType": "bool",
          "name": "",
          "type": "bool"
        }
      ],
      "stateMutability": "nonpayable",
      "type": "function"
    }
  ],
  "bytecode": "0x608060405234801561001057600080fd5b506110f8806100206000396000f3fe6080604052600436106100295760003560e01c806321ff1ef61461002e5780636ceaa4931461006b575b600080fd5b34801561003a57600080fd5b5061005560048036038101906100509190610a28565b61009b565b6040516100629190610ab2565b60405180910390f35b61008560048036038101906100809190610acd565b610313565b6040516100929190610ab2565b60405180910390f35b6000808451116100e0576040517f08c379a00000000000000000000000000000000000000000000000000000000081526004016100d790610b86565b60405180910390fd5b6100e9846104df565b610128576040517f08c379a000000000000000000000000000000000000000000000000000000000815260040161011f90610bf2565b60405180910390fd5b6000831161016b576040517f08c379a000000000000000000000000000000000000000000000000000000000815260040161016290610c5e565b60405180910390fd5b6000829050600085518561017f9190610cad565b905061018b8482610590565b6101ca576040517f08c379a00000000000000000000000000000000000000000000000000000000081526004016101c190610d3b565b60405180910390fd5b6101d68433308461065f565b610215576040517f08c379a000000000000000000000000000000000000000000000000000000000815260040161020c90610da7565b60405180910390fd5b60005b8651811015610305578273ffffffffffffffffffffffffffffffffffffffff1663a9059cbb8883815181106102505761024f610dc7565b5b6020026020010151886040518363ffffffff1660e01b8152600401610276929190610e14565b6020604051808303816000875af1158015610295573d6000803e3d6000fd5b505050506040513d601f19601f820116820180604052508101906102b99190610e69565b6102f8576040517f08c379a00000000000000000000000000000000000000000000000000000000081526004016102ef90610da7565b60405180910390fd5b8080600101915050610218565b506001925050509392505050565b600080835111610358576040517f08c379a000000000000000000000000000000000000000000000000000000000815260040161034f90610b86565b60405180910390fd5b610361836104df565b6103a0576040517f08c379a000000000000000000000000000000000000000000000000000000000815260040161039790610bf2565b60405180910390fd5b60008351836103af9190610cad565b90508034146103f3576040517f08c379a00000000000000000000000000000000000000000000000000000000081526004016103ea90610ee2565b60405180910390fd5b60005b84518110156104d357600085828151811061041457610413610dc7565b5b602002602001015173ffffffffffffffffffffffffffffffffffffffff168560405161043f90610f33565b60006040518083038185875af1925050503d806000811461047c576040519150601f19603f3d011682016040523d82523d6000602084013e610481565b606091505b50509050806104c5576040517f08c379a00000000000000000000000000000000000000000000000000000000081526004016104bc90610f94565b60405180910390fd5b5080806001019150506103f6565b50600191505092915050565b600080600090505b825181101561058657600073ffffffffffffffffffffffffffffffffffffffff1683828151811061051b5761051a610dc7565b5b602002602001015173ffffffffffffffffffffffffffffffffffffffff1603610579576040517f08c379a000000000000000000000000000000000000000000000000000000000815260040161057090610bf2565b60405180910390fd5b80806001019150506104e7565b5060019050919050565b600080839050828173ffffffffffffffffffffffffffffffffffffffff1663dd62ed3e33306040518363ffffffff1660e01b81526004016105d2929190610fb4565b602060405180830381865afa1580156105ef573d6000803e3d6000fd5b505050506040513d601f19601f820116820180604052508101906106139190610ff2565b1015610654576040517f08c379a000000000000000000000000000000000000000000000000000000000815260040161064b90610d3b565b60405180910390fd5b600191505092915050565b6000808590503073ffffffffffffffffffffffffffffffffffffffff168573ffffffffffffffffffffffffffffffffffffffff160361075a578073ffffffffffffffffffffffffffffffffffffffff1663a9059cbb85856040518363ffffffff1660e01b81526004016106d3929190610e14565b6020604051808303816000875af11580156106f2573d6000803e3d6000fd5b505050506040513d601f19601f820116820180604052508101906107169190610e69565b610755576040517f08c379a000000000000000000000000000000000000000000000000000000000815260040161074c9061106b565b60405180910390fd5b61081a565b8073ffffffffffffffffffffffffffffffffffffffff166323b872dd8686866040518463ffffffff1660e01b81526004016107979392919061108b565b6020604051808303816000875af11580156107b6573d6000803e3d6000fd5b505050506040513d601f19601f820116820180604052508101906107da9190610e69565b610819576040517f08c379a00000000000000000000000000000000000000000000000000000000081526004016108109061106b565b60405180910390fd5b5b6001915050949350505050565b6000604051905090565b600080fd5b600080fd5b600080fd5b6000601f19601f8301169050919050565b7f4e487b7100000000000000000000000000000000000000000000000000000000600052604160045260246000fd5b61088982610840565b810181811067ffffffffffffffff821117156108a8576108a7610851565b5b80604052505050565b60006108bb610827565b90506108c78282610880565b919050565b600067ffffffffffffffff8211156108e7576108e6610851565b5b602082029050602081019050919050565b600080fd5b600073ffffffffffffffffffffffffffffffffffffffff82169050919050565b6000610928826108fd565b9050919050565b6109388161091d565b811461094357600080fd5b50565b6000813590506109558161092f565b92915050565b600061096e610969846108cc565b6108b1565b90508083825260208201905060208402830185811115610991576109906108f8565b5b835b818110156109ba57806109a68882610946565b845260208401935050602081019050610993565b5050509392505050565b600082601f8301126109d9576109d861083b565b5b81356109e984826020860161095b565b91505092915050565b6000819050919050565b610a05816109f2565b8114610a1057600080fd5b50565b600081359050610a22816109fc565b92915050565b600080600060608486031215610a4157610a40610831565b5b600084013567ffffffffffffffff811115610a5f57610a5e610836565b5b610a6b868287016109c4565b9350506020610a7c86828701610a13565b9250506040610a8d86828701610946565b9150509250925092565b60008115159050919050565b610aac81610a97565b82525050565b6000602082019050610ac76000830184610aa3565b92915050565b60008060408385031215610ae457610ae3610831565b5b600083013567ffffffffffffffff811115610b0257610b01610836565b5b610b0e858286016109c4565b9250506020610b1f85828601610a13565b9150509250929050565b600082825260208201905092915050565b7f4e6f20726563697069656e74732070726f766964656400000000000000000000600082015250565b6000610b70601683610b29565b9150610b7b82610b3a565b602082019050919050565b60006020820190508181036000830152610b9f81610b63565b9050919050565b7f496e76616c696420616464726573730000000000000000000000000000000000600082015250565b6000610bdc600f83610b29565b9150610be782610ba6565b602082019050919050565b60006020820190508181036000830152610c0b81610bcf565b9050919050565b7f416d6f756e74206d7573742062652067726561746572207468616e2030000000600082015250565b6000610c48601d83610b29565b9150610c5382610c12565b602082019050919050565b60006020820190508181036000830152610c7781610c3b565b9050919050565b7f4e487b7100000000000000000000000000000000000000000000000000000000600052601160045260246000fd5b6000610cb8826109f2565b9150610cc3836109f2565b9250828202610cd1816109f2565b91508282048414831517610ce857610ce7610c7e565b5b5092915050565b7f496e73756666696369656e7420616c6c6f77616e636500000000000000000000600082015250565b6000610d25601683610b29565b9150610d3082610cef565b602082019050919050565b60006020820190508181036000830152610d5481610d18565b9050919050565b7f5472616e73666572206661696c65640000000000000000000000000000000000600082015250565b6000610d91600f83610b29565b9150610d9c82610d5b565b602082019050919050565b60006020820190508181036000830152610dc081610d84565b9050919050565b7f4e487b7100000000000000000000000000000000000000000000000000000000600052603260045260246000fd5b610dff8161091d565b82525050565b610e0e816109f2565b82525050565b6000604082019050610e296000830185610df6565b610e366020830184610e05565b9392505050565b610e4681610a97565b8114610e5157600080fd5b50565b600081519050610e6381610e3d565b92915050565b600060208284031215610e7f57610e7e610831565b5b6000610e8d84828501610e54565b91505092915050565b7f496e73756666696369656e74204b6c61792073656e7400000000000000000000600082015250565b6000610ecc601683610b29565b9150610ed782610e96565b602082019050919050565b60006020820190508181036000830152610efb81610ebf565b9050919050565b600081905092915050565b50565b6000610f1d600083610f02565b9150610f2882610f0d565b600082019050919050565b6000610f3e82610f10565b9150819050919050565b7f4465706f736974207472616e73666572206661696c6564000000000000000000600082015250565b6000610f7e601783610b29565b9150610f8982610f48565b602082019050919050565b60006020820190508181036000830152610fad81610f71565b9050919050565b6000604082019050610fc96000830185610df6565b610fd66020830184610df6565b9392505050565b600081519050610fec816109fc565b92915050565b60006020828403121561100857611007610831565b5b600061101684828501610fdd565b91505092915050565b7f546f6b656e207472616e73666572206661696c65640000000000000000000000600082015250565b6000611055601583610b29565b91506110608261101f565b602082019050919050565b6000602082019050818103600083015261108481611048565b9050919050565b60006060820190506110a06000830186610df6565b6110ad6020830185610df6565b6110ba6040830184610e05565b94935050505056fea26469706673582212208f5f4802c3928292770e8467040d80694509ea3dd61b9df1312f079708aea9bf64736f6c63430008160033",
  "linkReferences": {},
  "deployedLinkReferences": {}
}