{
  "_format": "hh-sol-artifact-1",
  "contractName": "milestoneSafe",
  "sourceName": "contracts/milestoneSafe.sol",
  "abi": [
    {
      "anonymous": false,
      "inputs": [
        {
          "indexed": false,
          "internalType": "uint256",
          "name": "safeId",
          "type": "uint256"
        },
        {
          "indexed": false,
          "internalType": "address",
          "name": "owner",
          "type": "address"
        },
        {
          "indexed": false,
          "internalType": "address",
          "name": "recipient",
          "type": "address"
        },
        {
          "indexed": false,
          "internalType": "uint256[]",
          "name": "milestonesAmounts",
          "type": "uint256[]"
        },
        {
          "indexed": false,
          "internalType": "uint32",
          "name": "minimumApprovals",
          "type": "uint32"
        },
        {
          "indexed": false,
          "internalType": "address[]",
          "name": "approvers",
          "type": "address[]"
        }
      ],
      "name": "SafeCreated",
      "type": "event"
    },
    {
      "inputs": [
        {
          "internalType": "uint256",
          "name": "",
          "type": "uint256"
        }
      ],
      "name": "allSafes",
      "outputs": [
        {
          "internalType": "uint256",
          "name": "safeId",
          "type": "uint256"
        },
        {
          "internalType": "address",
          "name": "owner",
          "type": "address"
        },
        {
          "internalType": "address",
          "name": "recipient",
          "type": "address"
        },
        {
          "internalType": "uint32",
          "name": "minimumApprovals",
          "type": "uint32"
        },
        {
          "internalType": "uint32",
          "name": "approvalsCount",
          "type": "uint32"
        },
        {
          "internalType": "bool",
          "name": "status",
          "type": "bool"
        },
        {
          "internalType": "address",
          "name": "tokenAddress",
          "type": "address"
        },
        {
          "internalType": "uint256",
          "name": "currentMilestone",
          "type": "uint256"
        }
      ],
      "stateMutability": "view",
      "type": "function"
    },
    {
      "inputs": [
        {
          "internalType": "uint256",
          "name": "safeId",
          "type": "uint256"
        }
      ],
      "name": "approve",
      "outputs": [
        {
          "internalType": "bool",
          "name": "",
          "type": "bool"
        }
      ],
      "stateMutability": "nonpayable",
      "type": "function"
    },
    {
      "inputs": [
        {
          "internalType": "address",
          "name": "recipient",
          "type": "address"
        },
        {
          "internalType": "uint256[]",
          "name": "milestonesAmounts",
          "type": "uint256[]"
        },
        {
          "internalType": "uint32",
          "name": "minimumApprovals",
          "type": "uint32"
        },
        {
          "internalType": "address[]",
          "name": "approvers",
          "type": "address[]"
        }
      ],
      "name": "createSafeForNative",
      "outputs": [
        {
          "internalType": "uint256",
          "name": "",
          "type": "uint256"
        }
      ],
      "stateMutability": "payable",
      "type": "function"
    },
    {
      "inputs": [
        {
          "internalType": "address",
          "name": "recipient",
          "type": "address"
        },
        {
          "internalType": "uint256[]",
          "name": "milestonesAmounts",
          "type": "uint256[]"
        },
        {
          "internalType": "uint32",
          "name": "minimumApprovals",
          "type": "uint32"
        },
        {
          "internalType": "address[]",
          "name": "approvers",
          "type": "address[]"
        },
        {
          "internalType": "address",
          "name": "tokenAddress",
          "type": "address"
        }
      ],
      "name": "createSafeForToken",
      "outputs": [
        {
          "internalType": "uint256",
          "name": "",
          "type": "uint256"
        }
      ],
      "stateMutability": "payable",
      "type": "function"
    },
    {
      "inputs": [
        {
          "internalType": "uint256",
          "name": "safeId",
          "type": "uint256"
        }
      ],
      "name": "currentMilestone",
      "outputs": [
        {
          "internalType": "uint256",
          "name": "",
          "type": "uint256"
        }
      ],
      "stateMutability": "view",
      "type": "function"
    },
    {
      "inputs": [
        {
          "internalType": "uint256",
          "name": "safeId",
          "type": "uint256"
        }
      ],
      "name": "getApprovers",
      "outputs": [
        {
          "internalType": "address[]",
          "name": "_approvers",
          "type": "address[]"
        }
      ],
      "stateMutability": "view",
      "type": "function"
    },
    {
      "inputs": [
        {
          "internalType": "uint256",
          "name": "",
          "type": "uint256"
        },
        {
          "internalType": "uint256",
          "name": "",
          "type": "uint256"
        },
        {
          "internalType": "address",
          "name": "",
          "type": "address"
        }
      ],
      "name": "hasApproved",
      "outputs": [
        {
          "internalType": "bool",
          "name": "",
          "type": "bool"
        }
      ],
      "stateMutability": "view",
      "type": "function"
    },
    {
      "inputs": [
        {
          "internalType": "uint256",
          "name": "safeId",
          "type": "uint256"
        }
      ],
      "name": "isSafeActive",
      "outputs": [],
      "stateMutability": "view",
      "type": "function"
    },
    {
      "inputs": [
        {
          "internalType": "uint256",
          "name": "safeId",
          "type": "uint256"
        }
      ],
      "name": "terminateSafe",
      "outputs": [
        {
          "internalType": "bool",
          "name": "",
          "type": "bool"
        }
      ],
      "stateMutability": "nonpayable",
      "type": "function"
    },
    {
      "inputs": [
        {
          "internalType": "uint256",
          "name": "safeId",
          "type": "uint256"
        }
      ],
      "name": "totalAmountLocked",
      "outputs": [
        {
          "internalType": "uint256",
          "name": "",
          "type": "uint256"
        }
      ],
      "stateMutability": "view",
      "type": "function"
    },
    {
      "inputs": [],
      "name": "totalSafes",
      "outputs": [
        {
          "internalType": "uint256",
          "name": "",
          "type": "uint256"
        }
      ],
      "stateMutability": "view",
      "type": "function"
    }
  ],
  "bytecode": "0x608060405234801561001057600080fd5b5061318a806100206000396000f3fe60806040526004361061009c5760003560e01c80633c5ff66a116100645780633c5ff66a1461019f5780636793c8e1146101e35780639789cd1614610220578063a80edf1d14610250578063b759f9541461028d578063c65df794146102ca5761009c565b806306fe9c36146100a157806308dae23c146100ca5780630f8cf47b146101075780631867750f146101445780632f82318614610174575b600080fd5b3480156100ad57600080fd5b506100c860048036038101906100c39190612082565b610307565b005b3480156100d657600080fd5b506100f160048036038101906100ec919061210d565b610383565b6040516100fe919061217b565b60405180910390f35b34801561011357600080fd5b5061012e60048036038101906101299190612082565b6103bf565b60405161013b91906121a5565b60405180910390f35b61015e60048036038101906101599190612418565b610444565b60405161016b91906121a5565b60405180910390f35b34801561018057600080fd5b50610189610a1b565b60405161019691906121a5565b60405180910390f35b3480156101ab57600080fd5b506101c660048036038101906101c19190612082565b610a21565b6040516101da9897969594939291906124e9565b60405180910390f35b3480156101ef57600080fd5b5061020a60048036038101906102059190612082565b610af6565b60405161021791906121a5565b60405180910390f35b61023a60048036038101906102359190612567565b610b25565b60405161024791906121a5565b60405180910390f35b34801561025c57600080fd5b5061027760048036038101906102729190612082565b6110ab565b604051610284919061217b565b60405180910390f35b34801561029957600080fd5b506102b460048036038101906102af9190612082565b61141c565b6040516102c1919061217b565b60405180910390f35b3480156102d657600080fd5b506102f160048036038101906102ec9190612082565b611963565b6040516102fe91906126c4565b60405180910390f35b61031081611a0d565b6000600160008381526020019081526020016000209050600115158160060160009054906101000a900460ff1615151461037f576040517f08c379a000000000000000000000000000000000000000000000000000000000815260040161037690612743565b60405180910390fd5b5050565b6002602052826000526040600020602052816000526040600020602052806000526040600020600092509250509054906101000a900460ff1681565b60006103ca82611a0d565b600060016000848152602001908152602001600020905061043c8160030180548060200260200160405190810160405280929190818152602001828054801561043257602002820191906000526020600020905b81548152602001906001019080831161041e575b5050505050611a55565b915050919050565b60008363ffffffff1683511015610490576040517f08c379a0000000000000000000000000000000000000000000000000000000008152600401610487906127af565b60405180910390fd5b600073ffffffffffffffffffffffffffffffffffffffff168673ffffffffffffffffffffffffffffffffffffffff16036104ff576040517f08c379a00000000000000000000000000000000000000000000000000000000081526004016104f69061281b565b60405180910390fd5b61050886611aad565b610547576040517f08c379a000000000000000000000000000000000000000000000000000000000815260040161053e90612887565b60405180910390fd5b61055083611b26565b61058f576040517f08c379a000000000000000000000000000000000000000000000000000000000815260040161058690612887565b60405180910390fd5b61059883611bdd565b6105d7576040517f08c379a00000000000000000000000000000000000000000000000000000000081526004016105ce906128f3565b60405180910390fd5b60006105e286611a55565b90506105ee8382611cad565b61062d576040517f08c379a00000000000000000000000000000000000000000000000000000000081526004016106249061295f565b60405180910390fd5b61063983333084611d7c565b610678576040517f08c379a000000000000000000000000000000000000000000000000000000000815260040161066f906129cb565b60405180910390fd5b60008081548092919061068a90612a1a565b9190505550600060405180610140016040528060005481526020013373ffffffffffffffffffffffffffffffffffffffff1681526020018973ffffffffffffffffffffffffffffffffffffffff1681526020018881526020018763ffffffff168152602001600063ffffffff1681526020018681526020016001151581526020018573ffffffffffffffffffffffffffffffffffffffff168152602001600081525090508060016000805481526020019081526020016000206000820151816000015560208201518160010160006101000a81548173ffffffffffffffffffffffffffffffffffffffff021916908373ffffffffffffffffffffffffffffffffffffffff16021790555060408201518160020160006101000a81548173ffffffffffffffffffffffffffffffffffffffff021916908373ffffffffffffffffffffffffffffffffffffffff16021790555060608201518160030190805190602001906107f7929190611f44565b5060808201518160040160006101000a81548163ffffffff021916908363ffffffff16021790555060a08201518160040160046101000a81548163ffffffff021916908363ffffffff16021790555060c0820151816005019080519060200190610862929190611f91565b5060e08201518160060160006101000a81548160ff0219169083151502179055506101008201518160060160016101000a81548173ffffffffffffffffffffffffffffffffffffffff021916908373ffffffffffffffffffffffffffffffffffffffff160217905550610120820151816007015590505060005b87518110156109c75760005b86518110156109b3576000600260008054815260200190815260200160002060008b858151811061091c5761091b612a62565b5b60200260200101518152602001908152602001600020600089848151811061094757610946612a62565b5b602002602001015173ffffffffffffffffffffffffffffffffffffffff1673ffffffffffffffffffffffffffffffffffffffff16815260200190815260200160002060006101000a81548160ff02191690831515021790555080806109ab90612a1a565b9150506108e8565b5080806109bf90612a1a565b9150506108dc565b507f4d1e12a4fea2d4fc5649412d4434de87096a836ab3a8f4e999259776130de543600054338a8a8a8a604051610a0396959493929190612b4f565b60405180910390a16000549250505095945050505050565b60005481565b60016020528060005260406000206000915090508060000154908060010160009054906101000a900473ffffffffffffffffffffffffffffffffffffffff16908060020160009054906101000a900473ffffffffffffffffffffffffffffffffffffffff16908060040160009054906101000a900463ffffffff16908060040160049054906101000a900463ffffffff16908060060160009054906101000a900460ff16908060060160019054906101000a900473ffffffffffffffffffffffffffffffffffffffff16908060070154905088565b6000610b0182611a0d565b60006001600084815260200190815260200160002090508060070154915050919050565b6000610b3085611aad565b610b6f576040517f08c379a0000000000000000000000000000000000000000000000000000000008152600401610b6690612887565b60405180910390fd5b610b7882611b26565b610bb7576040517f08c379a0000000000000000000000000000000000000000000000000000000008152600401610bae90612887565b60405180910390fd5b610bc082611bdd565b610bff576040517f08c379a0000000000000000000000000000000000000000000000000000000008152600401610bf6906128f3565b60405180910390fd5b6000610c0a85611a55565b905080341015610c4f576040517f08c379a0000000000000000000000000000000000000000000000000000000008152600401610c4690612c0a565b60405180910390fd5b8363ffffffff1683511015610c99576040517f08c379a0000000000000000000000000000000000000000000000000000000008152600401610c90906127af565b60405180910390fd5b600073ffffffffffffffffffffffffffffffffffffffff168673ffffffffffffffffffffffffffffffffffffffff1603610d08576040517f08c379a0000000000000000000000000000000000000000000000000000000008152600401610cff9061281b565b60405180910390fd5b600080815480929190610d1a90612a1a565b9190505550600060405180610140016040528060005481526020013373ffffffffffffffffffffffffffffffffffffffff1681526020018873ffffffffffffffffffffffffffffffffffffffff1681526020018781526020018663ffffffff168152602001600063ffffffff168152602001858152602001600115158152602001600073ffffffffffffffffffffffffffffffffffffffff168152602001600081525090508060016000805481526020019081526020016000206000820151816000015560208201518160010160006101000a81548173ffffffffffffffffffffffffffffffffffffffff021916908373ffffffffffffffffffffffffffffffffffffffff16021790555060408201518160020160006101000a81548173ffffffffffffffffffffffffffffffffffffffff021916908373ffffffffffffffffffffffffffffffffffffffff1602179055506060820151816003019080519060200190610e88929190611f44565b5060808201518160040160006101000a81548163ffffffff021916908363ffffffff16021790555060a08201518160040160046101000a81548163ffffffff021916908363ffffffff16021790555060c0820151816005019080519060200190610ef3929190611f91565b5060e08201518160060160006101000a81548160ff0219169083151502179055506101008201518160060160016101000a81548173ffffffffffffffffffffffffffffffffffffffff021916908373ffffffffffffffffffffffffffffffffffffffff160217905550610120820151816007015590505060005b86518110156110585760005b8551811015611044576000600260008054815260200190815260200160002060008a8581518110610fad57610fac612a62565b5b602002602001015181526020019081526020016000206000888481518110610fd857610fd7612a62565b5b602002602001015173ffffffffffffffffffffffffffffffffffffffff1673ffffffffffffffffffffffffffffffffffffffff16815260200190815260200160002060006101000a81548160ff021916908315150217905550808061103c90612a1a565b915050610f79565b50808061105090612a1a565b915050610f6d565b507f4d1e12a4fea2d4fc5649412d4434de87096a836ab3a8f4e999259776130de543600054338989898960405161109496959493929190612b4f565b60405180910390a160005492505050949350505050565b6000816001600082815260200190815260200160002060010160009054906101000a900473ffffffffffffffffffffffffffffffffffffffff1673ffffffffffffffffffffffffffffffffffffffff163373ffffffffffffffffffffffffffffffffffffffff1614611152576040517f08c379a000000000000000000000000000000000000000000000000000000000815260040161114990612c76565b60405180910390fd5b61115b83611a0d565b61116483610307565b6000600160008581526020019081526020016000209050600073ffffffffffffffffffffffffffffffffffffffff168160060160019054906101000a900473ffffffffffffffffffffffffffffffffffffffff1673ffffffffffffffffffffffffffffffffffffffff16036112df5760003373ffffffffffffffffffffffffffffffffffffffff166112478360030180548060200260200160405190810160405280929190818152602001828054801561123d57602002820191906000526020600020905b815481526020019060010190808311611229575b5050505050611a55565b60405161125390612cc7565b60006040518083038185875af1925050503d8060008114611290576040519150601f19603f3d011682016040523d82523d6000602084013e611295565b606091505b50509050806112d9576040517f08c379a00000000000000000000000000000000000000000000000000000000081526004016112d090612d28565b60405180910390fd5b506113a9565b6113698160060160019054906101000a900473ffffffffffffffffffffffffffffffffffffffff1630336113648560030180548060200260200160405190810160405280929190818152602001828054801561135a57602002820191906000526020600020905b815481526020019060010190808311611346575b5050505050611a55565b611d7c565b6113a8576040517f08c379a000000000000000000000000000000000000000000000000000000000815260040161139f906129cb565b60405180910390fd5b5b60005b816003018054905081116113f35760008260030182815481106113d2576113d1612a62565b5b906000526020600020018190555080806113eb90612a1a565b9150506113ac565b5060008160060160006101000a81548160ff021916908315150217905550600192505050919050565b600061142782611a0d565b60006001600084815260200190815260200160002090506000805b82600501805490508110156114e0573373ffffffffffffffffffffffffffffffffffffffff1683600501828154811061147e5761147d612a62565b5b9060005260206000200160009054906101000a900473ffffffffffffffffffffffffffffffffffffffff1673ffffffffffffffffffffffffffffffffffffffff16036114cd57600191506114e0565b80806114d890612a1a565b915050611442565b5080611521576040517f08c379a000000000000000000000000000000000000000000000000000000000815260040161151890612d94565b60405180910390fd5b61152a84610307565b6002600085815260200190815260200160002060008360070154815260200190815260200160002060003373ffffffffffffffffffffffffffffffffffffffff1673ffffffffffffffffffffffffffffffffffffffff16815260200190815260200160002060009054906101000a900460ff16156115dd576040517f08c379a00000000000000000000000000000000000000000000000000000000081526004016115d490612e00565b60405180910390fd5b60016002600086815260200190815260200160002060008460070154815260200190815260200160002060003373ffffffffffffffffffffffffffffffffffffffff1673ffffffffffffffffffffffffffffffffffffffff16815260200190815260200160002060006101000a81548160ff02191690831515021790555081600401600481819054906101000a900463ffffffff168092919061167f90612e20565b91906101000a81548163ffffffff021916908363ffffffff160217905550508160040160009054906101000a900463ffffffff1663ffffffff168260040160049054906101000a900463ffffffff1663ffffffff161061195857600073ffffffffffffffffffffffffffffffffffffffff168260060160019054906101000a900473ffffffffffffffffffffffffffffffffffffffff1673ffffffffffffffffffffffffffffffffffffffff160361182b5760008260020160009054906101000a900473ffffffffffffffffffffffffffffffffffffffff1673ffffffffffffffffffffffffffffffffffffffff168360030184600701548154811061178857611787612a62565b5b906000526020600020015460405161179f90612cc7565b60006040518083038185875af1925050503d80600081146117dc576040519150601f19603f3d011682016040523d82523d6000602084013e6117e1565b606091505b5050905080611825576040517f08c379a000000000000000000000000000000000000000000000000000000000815260040161181c90612d28565b60405180910390fd5b506118e3565b6118a38260060160019054906101000a900473ffffffffffffffffffffffffffffffffffffffff16308460020160009054906101000a900473ffffffffffffffffffffffffffffffffffffffff168560030186600701548154811061189357611892612a62565b5b9060005260206000200154611d7c565b6118e2576040517f08c379a00000000000000000000000000000000000000000000000000000000081526004016118d9906129cb565b60405180910390fd5b5b6000826003018360070154815481106118ff576118fe612a62565b5b906000526020600020018190555081600701600081548092919061192290612a1a565b919050555081600301805490508260070154106119575760008260060160006101000a81548160ff0219169083151502179055505b5b600192505050919050565b6060600060016000848152602001908152602001600020905080600501805480602002602001604051908101604052809291908181526020018280548015611a0057602002820191906000526020600020905b8160009054906101000a900473ffffffffffffffffffffffffffffffffffffffff1673ffffffffffffffffffffffffffffffffffffffff16815260200190600101908083116119b6575b5050505050915050919050565b600054811115611a52576040517f08c379a0000000000000000000000000000000000000000000000000000000008152600401611a4990612e98565b60405180910390fd5b50565b6000806000905060005b8351811015611aa357838181518110611a7b57611a7a612a62565b5b602002602001015182611a8e9190612eb8565b91508080611a9b90612a1a565b915050611a5f565b5080915050919050565b60008073ffffffffffffffffffffffffffffffffffffffff168273ffffffffffffffffffffffffffffffffffffffff1603611b1d576040517f08c379a0000000000000000000000000000000000000000000000000000000008152600401611b1490612f38565b60405180910390fd5b60019050919050565b600080600090505b8251811015611bd357600073ffffffffffffffffffffffffffffffffffffffff16838281518110611b6257611b61612a62565b5b602002602001015173ffffffffffffffffffffffffffffffffffffffff1603611bc0576040517f08c379a0000000000000000000000000000000000000000000000000000000008152600401611bb790612f38565b60405180910390fd5b8080611bcb90612a1a565b915050611b2e565b5060019050919050565b600080600090505b8251811015611ca2576000600182611bfd9190612eb8565b90505b8351811015611c8e57838181518110611c1c57611c1b612a62565b5b602002602001015173ffffffffffffffffffffffffffffffffffffffff16848381518110611c4d57611c4c612a62565b5b602002602001015173ffffffffffffffffffffffffffffffffffffffff1603611c7b57600092505050611ca8565b8080611c8690612a1a565b915050611c00565b508080611c9a90612a1a565b915050611be5565b50600190505b919050565b600080839050828173ffffffffffffffffffffffffffffffffffffffff1663dd62ed3e33306040518363ffffffff1660e01b8152600401611cef929190612f58565b602060405180830381865afa158015611d0c573d6000803e3d6000fd5b505050506040513d601f19601f82011682018060405250810190611d309190612f96565b1015611d71576040517f08c379a0000000000000000000000000000000000000000000000000000000008152600401611d689061300f565b60405180910390fd5b600191505092915050565b6000808590503073ffffffffffffffffffffffffffffffffffffffff168573ffffffffffffffffffffffffffffffffffffffff1603611e77578073ffffffffffffffffffffffffffffffffffffffff1663a9059cbb85856040518363ffffffff1660e01b8152600401611df092919061302f565b6020604051808303816000875af1158015611e0f573d6000803e3d6000fd5b505050506040513d601f19601f82011682018060405250810190611e339190613084565b611e72576040517f08c379a0000000000000000000000000000000000000000000000000000000008152600401611e69906130fd565b60405180910390fd5b611f37565b8073ffffffffffffffffffffffffffffffffffffffff166323b872dd8686866040518463ffffffff1660e01b8152600401611eb49392919061311d565b6020604051808303816000875af1158015611ed3573d6000803e3d6000fd5b505050506040513d601f19601f82011682018060405250810190611ef79190613084565b611f36576040517f08c379a0000000000000000000000000000000000000000000000000000000008152600401611f2d906130fd565b60405180910390fd5b5b6001915050949350505050565b828054828255906000526020600020908101928215611f80579160200282015b82811115611f7f578251825591602001919060010190611f64565b5b509050611f8d919061201b565b5090565b82805482825590600052602060002090810192821561200a579160200282015b828111156120095782518260006101000a81548173ffffffffffffffffffffffffffffffffffffffff021916908373ffffffffffffffffffffffffffffffffffffffff16021790555091602001919060010190611fb1565b5b509050612017919061201b565b5090565b5b8082111561203457600081600090555060010161201c565b5090565b6000604051905090565b600080fd5b600080fd5b6000819050919050565b61205f8161204c565b811461206a57600080fd5b50565b60008135905061207c81612056565b92915050565b60006020828403121561209857612097612042565b5b60006120a68482850161206d565b91505092915050565b600073ffffffffffffffffffffffffffffffffffffffff82169050919050565b60006120da826120af565b9050919050565b6120ea816120cf565b81146120f557600080fd5b50565b600081359050612107816120e1565b92915050565b60008060006060848603121561212657612125612042565b5b60006121348682870161206d565b93505060206121458682870161206d565b9250506040612156868287016120f8565b9150509250925092565b60008115159050919050565b61217581612160565b82525050565b6000602082019050612190600083018461216c565b92915050565b61219f8161204c565b82525050565b60006020820190506121ba6000830184612196565b92915050565b600080fd5b6000601f19601f8301169050919050565b7f4e487b7100000000000000000000000000000000000000000000000000000000600052604160045260246000fd5b61220e826121c5565b810181811067ffffffffffffffff8211171561222d5761222c6121d6565b5b80604052505050565b6000612240612038565b905061224c8282612205565b919050565b600067ffffffffffffffff82111561226c5761226b6121d6565b5b602082029050602081019050919050565b600080fd5b600061229561229084612251565b612236565b905080838252602082019050602084028301858111156122b8576122b761227d565b5b835b818110156122e157806122cd888261206d565b8452602084019350506020810190506122ba565b5050509392505050565b600082601f830112612300576122ff6121c0565b5b8135612310848260208601612282565b91505092915050565b600063ffffffff82169050919050565b61233281612319565b811461233d57600080fd5b50565b60008135905061234f81612329565b92915050565b600067ffffffffffffffff8211156123705761236f6121d6565b5b602082029050602081019050919050565b600061239461238f84612355565b612236565b905080838252602082019050602084028301858111156123b7576123b661227d565b5b835b818110156123e057806123cc88826120f8565b8452602084019350506020810190506123b9565b5050509392505050565b600082601f8301126123ff576123fe6121c0565b5b813561240f848260208601612381565b91505092915050565b600080600080600060a0868803121561243457612433612042565b5b6000612442888289016120f8565b955050602086013567ffffffffffffffff81111561246357612462612047565b5b61246f888289016122eb565b945050604061248088828901612340565b935050606086013567ffffffffffffffff8111156124a1576124a0612047565b5b6124ad888289016123ea565b92505060806124be888289016120f8565b9150509295509295909350565b6124d4816120cf565b82525050565b6124e381612319565b82525050565b6000610100820190506124ff600083018b612196565b61250c602083018a6124cb565b61251960408301896124cb565b61252660608301886124da565b61253360808301876124da565b61254060a083018661216c565b61254d60c08301856124cb565b61255a60e0830184612196565b9998505050505050505050565b6000806000806080858703121561258157612580612042565b5b600061258f878288016120f8565b945050602085013567ffffffffffffffff8111156125b0576125af612047565b5b6125bc878288016122eb565b93505060406125cd87828801612340565b925050606085013567ffffffffffffffff8111156125ee576125ed612047565b5b6125fa878288016123ea565b91505092959194509250565b600081519050919050565b600082825260208201905092915050565b6000819050602082019050919050565b61263b816120cf565b82525050565b600061264d8383612632565b60208301905092915050565b6000602082019050919050565b600061267182612606565b61267b8185612611565b935061268683612622565b8060005b838110156126b757815161269e8882612641565b97506126a983612659565b92505060018101905061268a565b5085935050505092915050565b600060208201905081810360008301526126de8184612666565b905092915050565b600082825260208201905092915050565b7f53616665206e6f74206163746976650000000000000000000000000000000000600082015250565b600061272d600f836126e6565b9150612738826126f7565b602082019050919050565b6000602082019050818103600083015261275c81612720565b9050919050565b7f4e6f7420656e6f75676820617070726f76657273000000000000000000000000600082015250565b60006127996014836126e6565b91506127a482612763565b602082019050919050565b600060208201905081810360008301526127c88161278c565b9050919050565b7f526563697069656e7420616464726573732063616e6e6f74206265207a65726f600082015250565b60006128056020836126e6565b9150612810826127cf565b602082019050919050565b60006020820190508181036000830152612834816127f8565b9050919050565b7f4e6f7420616e2061646472657373000000000000000000000000000000000000600082015250565b6000612871600e836126e6565b915061287c8261283b565b602082019050919050565b600060208201905081810360008301526128a081612864565b9050919050565b7f417070726f76657273206e6f7420756e69717565000000000000000000000000600082015250565b60006128dd6014836126e6565b91506128e8826128a7565b602082019050919050565b6000602082019050818103600083015261290c816128d0565b9050919050565b7f4e6f20616c6c6f77616e63650000000000000000000000000000000000000000600082015250565b6000612949600c836126e6565b915061295482612913565b602082019050919050565b600060208201905081810360008301526129788161293c565b9050919050565b7f5472616e73666572206661696c65640000000000000000000000000000000000600082015250565b60006129b5600f836126e6565b91506129c08261297f565b602082019050919050565b600060208201905081810360008301526129e4816129a8565b9050919050565b7f4e487b7100000000000000000000000000000000000000000000000000000000600052601160045260246000fd5b6000612a258261204c565b91507fffffffffffffffffffffffffffffffffffffffffffffffffffffffffffffffff8203612a5757612a566129eb565b5b600182019050919050565b7f4e487b7100000000000000000000000000000000000000000000000000000000600052603260045260246000fd5b600081519050919050565b600082825260208201905092915050565b6000819050602082019050919050565b612ac68161204c565b82525050565b6000612ad88383612abd565b60208301905092915050565b6000602082019050919050565b6000612afc82612a91565b612b068185612a9c565b9350612b1183612aad565b8060005b83811015612b42578151612b298882612acc565b9750612b3483612ae4565b925050600181019050612b15565b5085935050505092915050565b600060c082019050612b646000830189612196565b612b7160208301886124cb565b612b7e60408301876124cb565b8181036060830152612b908186612af1565b9050612b9f60808301856124da565b81810360a0830152612bb18184612666565b9050979650505050505050565b7f496e636f7272656374206465706f73697420616d6f756e740000000000000000600082015250565b6000612bf46018836126e6565b9150612bff82612bbe565b602082019050919050565b60006020820190508181036000830152612c2381612be7565b9050919050565b7f4e6f7420746865206f776e657200000000000000000000000000000000000000600082015250565b6000612c60600d836126e6565b9150612c6b82612c2a565b602082019050919050565b60006020820190508181036000830152612c8f81612c53565b9050919050565b600081905092915050565b50565b6000612cb1600083612c96565b9150612cbc82612ca1565b600082019050919050565b6000612cd282612ca4565b9150819050919050565b7f43616c6c206661696c6564000000000000000000000000000000000000000000600082015250565b6000612d12600b836126e6565b9150612d1d82612cdc565b602082019050919050565b60006020820190508181036000830152612d4181612d05565b9050919050565b7f4e6f7420616e20617070726f7665720000000000000000000000000000000000600082015250565b6000612d7e600f836126e6565b9150612d8982612d48565b602082019050919050565b60006020820190508181036000830152612dad81612d71565b9050919050565b7f416c726561647920617070726f76656400000000000000000000000000000000600082015250565b6000612dea6010836126e6565b9150612df582612db4565b602082019050919050565b60006020820190508181036000830152612e1981612ddd565b9050919050565b6000612e2b82612319565b915063ffffffff8203612e4157612e406129eb565b5b600182019050919050565b7f5361666520646f6573206e6f7420657869737400000000000000000000000000600082015250565b6000612e826013836126e6565b9150612e8d82612e4c565b602082019050919050565b60006020820190508181036000830152612eb181612e75565b9050919050565b6000612ec38261204c565b9150612ece8361204c565b9250828201905080821115612ee657612ee56129eb565b5b92915050565b7f496e76616c696420616464726573730000000000000000000000000000000000600082015250565b6000612f22600f836126e6565b9150612f2d82612eec565b602082019050919050565b60006020820190508181036000830152612f5181612f15565b9050919050565b6000604082019050612f6d60008301856124cb565b612f7a60208301846124cb565b9392505050565b600081519050612f9081612056565b92915050565b600060208284031215612fac57612fab612042565b5b6000612fba84828501612f81565b91505092915050565b7f496e73756666696369656e7420616c6c6f77616e636500000000000000000000600082015250565b6000612ff96016836126e6565b915061300482612fc3565b602082019050919050565b6000602082019050818103600083015261302881612fec565b9050919050565b600060408201905061304460008301856124cb565b6130516020830184612196565b9392505050565b61306181612160565b811461306c57600080fd5b50565b60008151905061307e81613058565b92915050565b60006020828403121561309a57613099612042565b5b60006130a88482850161306f565b91505092915050565b7f5472616e73616374696f6e206661696c65640000000000000000000000000000600082015250565b60006130e76012836126e6565b91506130f2826130b1565b602082019050919050565b60006020820190508181036000830152613116816130da565b9050919050565b600060608201905061313260008301866124cb565b61313f60208301856124cb565b61314c6040830184612196565b94935050505056fea2646970667358221220295d864b7150130979556de4abb0255b0d1ff69782af27b77df3e58aedc5331b64736f6c63430008140033",
  "linkReferences": {},
  "deployedLinkReferences": {}
}