{
  "_format": "hh-sol-artifact-1",
  "contractName": "MultiSigSafe",
  "sourceName": "contracts/MultiSigSafe.sol",
  "abi": [
    {
      "anonymous": false,
      "inputs": [
        {
          "indexed": false,
          "internalType": "uint256",
          "name": "safeId",
          "type": "uint256"
        },
        {
          "indexed": false,
          "internalType": "address",
          "name": "owner",
          "type": "address"
        },
        {
          "indexed": false,
          "internalType": "address",
          "name": "recipient",
          "type": "address"
        },
        {
          "indexed": false,
          "internalType": "uint256",
          "name": "deposit",
          "type": "uint256"
        },
        {
          "indexed": false,
          "internalType": "uint32",
          "name": "minimumApprovals",
          "type": "uint32"
        },
        {
          "indexed": false,
          "internalType": "address[]",
          "name": "approvers",
          "type": "address[]"
        }
      ],
      "name": "SafeCreated",
      "type": "event"
    },
    {
      "anonymous": false,
      "inputs": [
        {
          "indexed": false,
          "internalType": "address",
          "name": "reciepent",
          "type": "address"
        },
        {
          "indexed": false,
          "internalType": "uint256",
          "name": "amount",
          "type": "uint256"
        }
      ],
      "name": "transfered",
      "type": "event"
    },
    {
      "inputs": [
        {
          "internalType": "uint256",
          "name": "",
          "type": "uint256"
        }
      ],
      "name": "allSafes",
      "outputs": [
        {
          "internalType": "uint256",
          "name": "safeId",
          "type": "uint256"
        },
        {
          "internalType": "address",
          "name": "owner",
          "type": "address"
        },
        {
          "internalType": "address",
          "name": "recipient",
          "type": "address"
        },
        {
          "internalType": "uint256",
          "name": "deposit",
          "type": "uint256"
        },
        {
          "internalType": "uint32",
          "name": "minimumApprovals",
          "type": "uint32"
        },
        {
          "internalType": "uint32",
          "name": "approvalsCount",
          "type": "uint32"
        },
        {
          "internalType": "bool",
          "name": "status",
          "type": "bool"
        },
        {
          "internalType": "address",
          "name": "tokenAddress",
          "type": "address"
        }
      ],
      "stateMutability": "view",
      "type": "function"
    },
    {
      "inputs": [
        {
          "internalType": "uint256",
          "name": "safeId",
          "type": "uint256"
        }
      ],
      "name": "approve",
      "outputs": [
        {
          "internalType": "bool",
          "name": "",
          "type": "bool"
        }
      ],
      "stateMutability": "nonpayable",
      "type": "function"
    },
    {
      "inputs": [
        {
          "internalType": "address",
          "name": "recipient",
          "type": "address"
        },
        {
          "internalType": "uint256",
          "name": "deposit",
          "type": "uint256"
        },
        {
          "internalType": "uint32",
          "name": "minimumApprovals",
          "type": "uint32"
        },
        {
          "internalType": "address[]",
          "name": "approvers",
          "type": "address[]"
        }
      ],
      "name": "createSafeForNative",
      "outputs": [
        {
          "internalType": "uint256",
          "name": "",
          "type": "uint256"
        }
      ],
      "stateMutability": "payable",
      "type": "function"
    },
    {
      "inputs": [
        {
          "internalType": "address",
          "name": "recipient",
          "type": "address"
        },
        {
          "internalType": "uint256",
          "name": "deposit",
          "type": "uint256"
        },
        {
          "internalType": "uint32",
          "name": "minimumApprovals",
          "type": "uint32"
        },
        {
          "internalType": "address[]",
          "name": "approvers",
          "type": "address[]"
        },
        {
          "internalType": "address",
          "name": "tokenAddress",
          "type": "address"
        }
      ],
      "name": "createSafeForToken",
      "outputs": [
        {
          "internalType": "uint256",
          "name": "",
          "type": "uint256"
        }
      ],
      "stateMutability": "payable",
      "type": "function"
    },
    {
      "inputs": [
        {
          "internalType": "uint256",
          "name": "safeId",
          "type": "uint256"
        }
      ],
      "name": "getApprovers",
      "outputs": [
        {
          "internalType": "address[]",
          "name": "_approvers",
          "type": "address[]"
        }
      ],
      "stateMutability": "view",
      "type": "function"
    },
    {
      "inputs": [
        {
          "internalType": "uint256",
          "name": "",
          "type": "uint256"
        },
        {
          "internalType": "address",
          "name": "",
          "type": "address"
        }
      ],
      "name": "hasApproved",
      "outputs": [
        {
          "internalType": "bool",
          "name": "",
          "type": "bool"
        }
      ],
      "stateMutability": "view",
      "type": "function"
    },
    {
      "inputs": [
        {
          "internalType": "uint256",
          "name": "safeId",
          "type": "uint256"
        }
      ],
      "name": "isSafeActive",
      "outputs": [],
      "stateMutability": "view",
      "type": "function"
    },
    {
      "inputs": [
        {
          "internalType": "uint256",
          "name": "safeId",
          "type": "uint256"
        }
      ],
      "name": "terminateSafe",
      "outputs": [
        {
          "internalType": "bool",
          "name": "",
          "type": "bool"
        }
      ],
      "stateMutability": "nonpayable",
      "type": "function"
    },
    {
      "inputs": [],
      "name": "totalSafes",
      "outputs": [
        {
          "internalType": "uint256",
          "name": "",
          "type": "uint256"
        }
      ],
      "stateMutability": "view",
      "type": "function"
    }
  ],
  "bytecode": "0x608060405234801561001057600080fd5b50612bd3806100206000396000f3fe6080604052600436106100865760003560e01c80633c5ff66a116100595780633c5ff66a1461014c5780637dee1fb414610190578063a80edf1d146101c0578063b759f954146101fd578063c65df7941461023a57610086565b806306fe9c361461008b57806322fcd223146100b45780632358d5a8146100e45780632f82318614610121575b600080fd5b34801561009757600080fd5b506100b260048036038101906100ad9190611c32565b610277565b005b6100ce60048036038101906100c99190611e52565b6102f3565b6040516100db9190611ee4565b60405180910390f35b3480156100f057600080fd5b5061010b60048036038101906101069190611eff565b6107f5565b6040516101189190611f5a565b60405180910390f35b34801561012d57600080fd5b50610136610824565b6040516101439190611ee4565b60405180910390f35b34801561015857600080fd5b50610173600480360381019061016e9190611c32565b61082a565b604051610187989796959493929190611f93565b60405180910390f35b6101aa60048036038101906101a59190612011565b6108ff565b6040516101b79190611ee4565b60405180910390f35b3480156101cc57600080fd5b506101e760048036038101906101e29190611c32565b610e52565b6040516101f49190611f5a565b60405180910390f35b34801561020957600080fd5b50610224600480360381019061021f9190611c32565b6110df565b6040516102319190611f5a565b60405180910390f35b34801561024657600080fd5b50610261600480360381019061025c9190611c32565b6115ca565b60405161026e9190612166565b60405180910390f35b61028081611674565b6000600160008381526020019081526020016000209050600115158160060160009054906101000a900460ff161515146102ef576040517f08c379a00000000000000000000000000000000000000000000000000000000081526004016102e6906121e5565b60405180910390fd5b5050565b600083341015610338576040517f08c379a000000000000000000000000000000000000000000000000000000000815260040161032f90612251565b60405180910390fd5b8263ffffffff1682511015610382576040517f08c379a0000000000000000000000000000000000000000000000000000000008152600401610379906122bd565b60405180910390fd5b600073ffffffffffffffffffffffffffffffffffffffff168573ffffffffffffffffffffffffffffffffffffffff16036103f1576040517f08c379a00000000000000000000000000000000000000000000000000000000081526004016103e890612329565b60405180910390fd5b6103fa856116bc565b610439576040517f08c379a000000000000000000000000000000000000000000000000000000000815260040161043090612395565b60405180910390fd5b61044282611735565b610481576040517f08c379a000000000000000000000000000000000000000000000000000000000815260040161047890612395565b60405180910390fd5b61048a826117e6565b6104c9576040517f08c379a00000000000000000000000000000000000000000000000000000000081526004016104c090612401565b60405180910390fd5b6000808154809291906104db90612450565b9190505550600060405180610120016040528060005481526020013373ffffffffffffffffffffffffffffffffffffffff1681526020018773ffffffffffffffffffffffffffffffffffffffff1681526020018681526020018563ffffffff168152602001600063ffffffff168152602001848152602001600115158152602001600073ffffffffffffffffffffffffffffffffffffffff1681525090508060016000805481526020019081526020016000206000820151816000015560208201518160010160006101000a81548173ffffffffffffffffffffffffffffffffffffffff021916908373ffffffffffffffffffffffffffffffffffffffff16021790555060408201518160020160006101000a81548173ffffffffffffffffffffffffffffffffffffffff021916908373ffffffffffffffffffffffffffffffffffffffff1602179055506060820151816003015560808201518160040160006101000a81548163ffffffff021916908363ffffffff16021790555060a08201518160040160046101000a81548163ffffffff021916908363ffffffff16021790555060c082015181600501908051906020019061069a929190611b41565b5060e08201518160060160006101000a81548160ff0219169083151502179055506101008201518160060160016101000a81548173ffffffffffffffffffffffffffffffffffffffff021916908373ffffffffffffffffffffffffffffffffffffffff16021790555090505060005b83518110156107a35760006002600080548152602001908152602001600020600086848151811061073d5761073c612498565b5b602002602001015173ffffffffffffffffffffffffffffffffffffffff1673ffffffffffffffffffffffffffffffffffffffff16815260200190815260200160002060006101000a81548160ff0219169083151502179055508080600101915050610709565b507f0b17d694be573b7c77accb14f9e183dcf0d962796078a59c17d84c322fc0156160005433888888886040516107df969594939291906124c7565b60405180910390a1600054915050949350505050565b60026020528160005260406000206020528060005260406000206000915091509054906101000a900460ff1681565b60005481565b60016020528060005260406000206000915090508060000154908060010160009054906101000a900473ffffffffffffffffffffffffffffffffffffffff16908060020160009054906101000a900473ffffffffffffffffffffffffffffffffffffffff16908060030154908060040160009054906101000a900463ffffffff16908060040160049054906101000a900463ffffffff16908060060160009054906101000a900460ff16908060060160019054906101000a900473ffffffffffffffffffffffffffffffffffffffff16905088565b60008363ffffffff168351101561094b576040517f08c379a0000000000000000000000000000000000000000000000000000000008152600401610942906122bd565b60405180910390fd5b600073ffffffffffffffffffffffffffffffffffffffff168673ffffffffffffffffffffffffffffffffffffffff16036109ba576040517f08c379a00000000000000000000000000000000000000000000000000000000081526004016109b190612329565b60405180910390fd5b6109c3866116bc565b610a02576040517f08c379a00000000000000000000000000000000000000000000000000000000081526004016109f990612395565b60405180910390fd5b610a0b83611735565b610a4a576040517f08c379a0000000000000000000000000000000000000000000000000000000008152600401610a4190612395565b60405180910390fd5b610a53836117e6565b610a92576040517f08c379a0000000000000000000000000000000000000000000000000000000008152600401610a8990612401565b60405180910390fd5b610a9c82866118aa565b610adb576040517f08c379a0000000000000000000000000000000000000000000000000000000008152600401610ad29061257b565b60405180910390fd5b610ae782333088611979565b610b26576040517f08c379a0000000000000000000000000000000000000000000000000000000008152600401610b1d906125e7565b60405180910390fd5b600080815480929190610b3890612450565b9190505550600060405180610120016040528060005481526020013373ffffffffffffffffffffffffffffffffffffffff1681526020018873ffffffffffffffffffffffffffffffffffffffff1681526020018781526020018663ffffffff168152602001600063ffffffff1681526020018581526020016001151581526020018473ffffffffffffffffffffffffffffffffffffffff1681525090508060016000805481526020019081526020016000206000820151816000015560208201518160010160006101000a81548173ffffffffffffffffffffffffffffffffffffffff021916908373ffffffffffffffffffffffffffffffffffffffff16021790555060408201518160020160006101000a81548173ffffffffffffffffffffffffffffffffffffffff021916908373ffffffffffffffffffffffffffffffffffffffff1602179055506060820151816003015560808201518160040160006101000a81548163ffffffff021916908363ffffffff16021790555060a08201518160040160046101000a81548163ffffffff021916908363ffffffff16021790555060c0820151816005019080519060200190610cf6929190611b41565b5060e08201518160060160006101000a81548160ff0219169083151502179055506101008201518160060160016101000a81548173ffffffffffffffffffffffffffffffffffffffff021916908373ffffffffffffffffffffffffffffffffffffffff16021790555090505060005b8451811015610dff57600060026000805481526020019081526020016000206000878481518110610d9957610d98612498565b5b602002602001015173ffffffffffffffffffffffffffffffffffffffff1673ffffffffffffffffffffffffffffffffffffffff16815260200190815260200160002060006101000a81548160ff0219169083151502179055508080600101915050610d65565b507f0b17d694be573b7c77accb14f9e183dcf0d962796078a59c17d84c322fc015616000543389898989604051610e3b969594939291906124c7565b60405180910390a160005491505095945050505050565b600081610e5e81611674565b6001600082815260200190815260200160002060010160009054906101000a900473ffffffffffffffffffffffffffffffffffffffff1673ffffffffffffffffffffffffffffffffffffffff163373ffffffffffffffffffffffffffffffffffffffff1614610f02576040517f08c379a0000000000000000000000000000000000000000000000000000000008152600401610ef990612653565b60405180910390fd5b610f0b83611674565b610f1483610277565b6000600160008581526020019081526020016000209050600073ffffffffffffffffffffffffffffffffffffffff168160060160019054906101000a900473ffffffffffffffffffffffffffffffffffffffff1673ffffffffffffffffffffffffffffffffffffffff16036110395760003373ffffffffffffffffffffffffffffffffffffffff168260030154604051610fad906126a4565b60006040518083038185875af1925050503d8060008114610fea576040519150601f19603f3d011682016040523d82523d6000602084013e610fef565b606091505b5050905080611033576040517f08c379a000000000000000000000000000000000000000000000000000000000815260040161102a90612705565b60405180910390fd5b506110ad565b61106d8160060160019054906101000a900473ffffffffffffffffffffffffffffffffffffffff1630338460030154611979565b6110ac576040517f08c379a00000000000000000000000000000000000000000000000000000000081526004016110a390612771565b60405180910390fd5b5b6000816003018190555060008160060160006101000a81548160ff021916908315150217905550600192505050919050565b60006110ea82611674565b60006001600084815260200190815260200160002090506000805b826005018054905081101561119d573373ffffffffffffffffffffffffffffffffffffffff1683600501828154811061114157611140612498565b5b9060005260206000200160009054906101000a900473ffffffffffffffffffffffffffffffffffffffff1673ffffffffffffffffffffffffffffffffffffffff1603611190576001915061119d565b8080600101915050611105565b50806111de576040517f08c379a00000000000000000000000000000000000000000000000000000000081526004016111d5906127dd565b60405180910390fd5b6111e784610277565b6002600085815260200190815260200160002060003373ffffffffffffffffffffffffffffffffffffffff1673ffffffffffffffffffffffffffffffffffffffff16815260200190815260200160002060009054906101000a900460ff1615611285576040517f08c379a000000000000000000000000000000000000000000000000000000000815260040161127c90612849565b60405180910390fd5b81600401600481819054906101000a900463ffffffff16809291906112a990612869565b91906101000a81548163ffffffff021916908363ffffffff160217905550508160040160009054906101000a900463ffffffff1663ffffffff168260040160049054906101000a900463ffffffff1663ffffffff16106115bf57600073ffffffffffffffffffffffffffffffffffffffff168260060160019054906101000a900473ffffffffffffffffffffffffffffffffffffffff1673ffffffffffffffffffffffffffffffffffffffff16036114965760008260020160009054906101000a900473ffffffffffffffffffffffffffffffffffffffff1673ffffffffffffffffffffffffffffffffffffffff1683600301546040516113a9906126a4565b60006040518083038185875af1925050503d80600081146113e6576040519150601f19603f3d011682016040523d82523d6000602084013e6113eb565b606091505b505090508061142f576040517f08c379a000000000000000000000000000000000000000000000000000000000815260040161142690612705565b60405180910390fd5b7f143d69bf67b6a4940e385436570698c0eee392469e51320d6db8637ca47ed1cf8360020160009054906101000a900473ffffffffffffffffffffffffffffffffffffffff168460030154604051611488929190612895565b60405180910390a15061152e565b6114ee8260060160019054906101000a900473ffffffffffffffffffffffffffffffffffffffff16308460020160009054906101000a900473ffffffffffffffffffffffffffffffffffffffff168560030154611979565b61152d576040517f08c379a0000000000000000000000000000000000000000000000000000000008152600401611524906125e7565b60405180910390fd5b5b60016002600086815260200190815260200160002060003373ffffffffffffffffffffffffffffffffffffffff1673ffffffffffffffffffffffffffffffffffffffff16815260200190815260200160002060006101000a81548160ff0219169083151502179055506000826003018190555060008260060160006101000a81548160ff0219169083151502179055505b600192505050919050565b606060006001600084815260200190815260200160002090508060050180548060200260200160405190810160405280929190818152602001828054801561166757602002820191906000526020600020905b8160009054906101000a900473ffffffffffffffffffffffffffffffffffffffff1673ffffffffffffffffffffffffffffffffffffffff168152602001906001019080831161161d575b5050505050915050919050565b6000548111156116b9576040517f08c379a00000000000000000000000000000000000000000000000000000000081526004016116b09061290a565b60405180910390fd5b50565b60008073ffffffffffffffffffffffffffffffffffffffff168273ffffffffffffffffffffffffffffffffffffffff160361172c576040517f08c379a000000000000000000000000000000000000000000000000000000000815260040161172390612976565b60405180910390fd5b60019050919050565b600080600090505b82518110156117dc57600073ffffffffffffffffffffffffffffffffffffffff1683828151811061177157611770612498565b5b602002602001015173ffffffffffffffffffffffffffffffffffffffff16036117cf576040517f08c379a00000000000000000000000000000000000000000000000000000000081526004016117c690612976565b60405180910390fd5b808060010191505061173d565b5060019050919050565b600080600090505b825181101561189f5760006001826118069190612996565b90505b83518110156118915783818151811061182557611824612498565b5b602002602001015173ffffffffffffffffffffffffffffffffffffffff1684838151811061185657611855612498565b5b602002602001015173ffffffffffffffffffffffffffffffffffffffff1603611884576000925050506118a5565b8080600101915050611809565b5080806001019150506117ee565b50600190505b919050565b600080839050828173ffffffffffffffffffffffffffffffffffffffff1663dd62ed3e33306040518363ffffffff1660e01b81526004016118ec9291906129ca565b602060405180830381865afa158015611909573d6000803e3d6000fd5b505050506040513d601f19601f8201168201806040525081019061192d9190612a08565b101561196e576040517f08c379a000000000000000000000000000000000000000000000000000000000815260040161196590612a81565b60405180910390fd5b600191505092915050565b6000808590503073ffffffffffffffffffffffffffffffffffffffff168573ffffffffffffffffffffffffffffffffffffffff1603611a74578073ffffffffffffffffffffffffffffffffffffffff1663a9059cbb85856040518363ffffffff1660e01b81526004016119ed929190612895565b6020604051808303816000875af1158015611a0c573d6000803e3d6000fd5b505050506040513d601f19601f82011682018060405250810190611a309190612acd565b611a6f576040517f08c379a0000000000000000000000000000000000000000000000000000000008152600401611a6690612b46565b60405180910390fd5b611b34565b8073ffffffffffffffffffffffffffffffffffffffff166323b872dd8686866040518463ffffffff1660e01b8152600401611ab193929190612b66565b6020604051808303816000875af1158015611ad0573d6000803e3d6000fd5b505050506040513d601f19601f82011682018060405250810190611af49190612acd565b611b33576040517f08c379a0000000000000000000000000000000000000000000000000000000008152600401611b2a90612b46565b60405180910390fd5b5b6001915050949350505050565b828054828255906000526020600020908101928215611bba579160200282015b82811115611bb95782518260006101000a81548173ffffffffffffffffffffffffffffffffffffffff021916908373ffffffffffffffffffffffffffffffffffffffff16021790555091602001919060010190611b61565b5b509050611bc79190611bcb565b5090565b5b80821115611be4576000816000905550600101611bcc565b5090565b6000604051905090565b600080fd5b600080fd5b6000819050919050565b611c0f81611bfc565b8114611c1a57600080fd5b50565b600081359050611c2c81611c06565b92915050565b600060208284031215611c4857611c47611bf2565b5b6000611c5684828501611c1d565b91505092915050565b600073ffffffffffffffffffffffffffffffffffffffff82169050919050565b6000611c8a82611c5f565b9050919050565b611c9a81611c7f565b8114611ca557600080fd5b50565b600081359050611cb781611c91565b92915050565b600063ffffffff82169050919050565b611cd681611cbd565b8114611ce157600080fd5b50565b600081359050611cf381611ccd565b92915050565b600080fd5b6000601f19601f8301169050919050565b7f4e487b7100000000000000000000000000000000000000000000000000000000600052604160045260246000fd5b611d4782611cfe565b810181811067ffffffffffffffff82111715611d6657611d65611d0f565b5b80604052505050565b6000611d79611be8565b9050611d858282611d3e565b919050565b600067ffffffffffffffff821115611da557611da4611d0f565b5b602082029050602081019050919050565b600080fd5b6000611dce611dc984611d8a565b611d6f565b90508083825260208201905060208402830185811115611df157611df0611db6565b5b835b81811015611e1a5780611e068882611ca8565b845260208401935050602081019050611df3565b5050509392505050565b600082601f830112611e3957611e38611cf9565b5b8135611e49848260208601611dbb565b91505092915050565b60008060008060808587031215611e6c57611e6b611bf2565b5b6000611e7a87828801611ca8565b9450506020611e8b87828801611c1d565b9350506040611e9c87828801611ce4565b925050606085013567ffffffffffffffff811115611ebd57611ebc611bf7565b5b611ec987828801611e24565b91505092959194509250565b611ede81611bfc565b82525050565b6000602082019050611ef96000830184611ed5565b92915050565b60008060408385031215611f1657611f15611bf2565b5b6000611f2485828601611c1d565b9250506020611f3585828601611ca8565b9150509250929050565b60008115159050919050565b611f5481611f3f565b82525050565b6000602082019050611f6f6000830184611f4b565b92915050565b611f7e81611c7f565b82525050565b611f8d81611cbd565b82525050565b600061010082019050611fa9600083018b611ed5565b611fb6602083018a611f75565b611fc36040830189611f75565b611fd06060830188611ed5565b611fdd6080830187611f84565b611fea60a0830186611f84565b611ff760c0830185611f4b565b61200460e0830184611f75565b9998505050505050505050565b600080600080600060a0868803121561202d5761202c611bf2565b5b600061203b88828901611ca8565b955050602061204c88828901611c1d565b945050604061205d88828901611ce4565b935050606086013567ffffffffffffffff81111561207e5761207d611bf7565b5b61208a88828901611e24565b925050608061209b88828901611ca8565b9150509295509295909350565b600081519050919050565b600082825260208201905092915050565b6000819050602082019050919050565b6120dd81611c7f565b82525050565b60006120ef83836120d4565b60208301905092915050565b6000602082019050919050565b6000612113826120a8565b61211d81856120b3565b9350612128836120c4565b8060005b8381101561215957815161214088826120e3565b975061214b836120fb565b92505060018101905061212c565b5085935050505092915050565b600060208201905081810360008301526121808184612108565b905092915050565b600082825260208201905092915050565b7f73616665206e6f74206163746976652000000000000000000000000000000000600082015250565b60006121cf601083612188565b91506121da82612199565b602082019050919050565b600060208201905081810360008301526121fe816121c2565b9050919050565b7f596f75206e65656420746f207370656e64206d6f726500000000000000000000600082015250565b600061223b601683612188565b915061224682612205565b602082019050919050565b6000602082019050818103600083015261226a8161222e565b9050919050565b7f4e6f7420656e6f75676820617070726f76657273000000000000000000000000600082015250565b60006122a7601483612188565b91506122b282612271565b602082019050919050565b600060208201905081810360008301526122d68161229a565b9050919050565b7f526563697069656e7420616464726573732063616e6e6f74206265207a65726f600082015250565b6000612313602083612188565b915061231e826122dd565b602082019050919050565b6000602082019050818103600083015261234281612306565b9050919050565b7f6e6f7420616e2061646472657373000000000000000000000000000000000000600082015250565b600061237f600e83612188565b915061238a82612349565b602082019050919050565b600060208201905081810360008301526123ae81612372565b9050919050565b7f617070726f76657273206e6f7420756e69717565000000000000000000000000600082015250565b60006123eb601483612188565b91506123f6826123b5565b602082019050919050565b6000602082019050818103600083015261241a816123de565b9050919050565b7f4e487b7100000000000000000000000000000000000000000000000000000000600052601160045260246000fd5b600061245b82611bfc565b91507fffffffffffffffffffffffffffffffffffffffffffffffffffffffffffffffff820361248d5761248c612421565b5b600182019050919050565b7f4e487b7100000000000000000000000000000000000000000000000000000000600052603260045260246000fd5b600060c0820190506124dc6000830189611ed5565b6124e96020830188611f75565b6124f66040830187611f75565b6125036060830186611ed5565b6125106080830185611f84565b81810360a08301526125228184612108565b9050979650505050505050565b7f6e6f20616c6c6f77656e63652000000000000000000000000000000000000000600082015250565b6000612565600d83612188565b91506125708261252f565b602082019050919050565b6000602082019050818103600083015261259481612558565b9050919050565b7f7472616e73666572206661696c65640000000000000000000000000000000000600082015250565b60006125d1600f83612188565b91506125dc8261259b565b602082019050919050565b60006020820190508181036000830152612600816125c4565b9050919050565b7f4e6f7420746865206f776e657200000000000000000000000000000000000000600082015250565b600061263d600d83612188565b915061264882612607565b602082019050919050565b6000602082019050818103600083015261266c81612630565b9050919050565b600081905092915050565b50565b600061268e600083612673565b91506126998261267e565b600082019050919050565b60006126af82612681565b9150819050919050565b7f43616c6c206661696c6564000000000000000000000000000000000000000000600082015250565b60006126ef600b83612188565b91506126fa826126b9565b602082019050919050565b6000602082019050818103600083015261271e816126e2565b9050919050565b7f7472616e73666572206669616c65640000000000000000000000000000000000600082015250565b600061275b600f83612188565b915061276682612725565b602082019050919050565b6000602082019050818103600083015261278a8161274e565b9050919050565b7f4e6f7420616e20617070726f7665720000000000000000000000000000000000600082015250565b60006127c7600f83612188565b91506127d282612791565b602082019050919050565b600060208201905081810360008301526127f6816127ba565b9050919050565b7f416c726561647920617070726f76656400000000000000000000000000000000600082015250565b6000612833601083612188565b915061283e826127fd565b602082019050919050565b6000602082019050818103600083015261286281612826565b9050919050565b600061287482611cbd565b915063ffffffff820361288a57612889612421565b5b600182019050919050565b60006040820190506128aa6000830185611f75565b6128b76020830184611ed5565b9392505050565b7f7361666520646f65736e6f742065787369737400000000000000000000000000600082015250565b60006128f4601383612188565b91506128ff826128be565b602082019050919050565b60006020820190508181036000830152612923816128e7565b9050919050565b7f496e76616c696420616464726573730000000000000000000000000000000000600082015250565b6000612960600f83612188565b915061296b8261292a565b602082019050919050565b6000602082019050818103600083015261298f81612953565b9050919050565b60006129a182611bfc565b91506129ac83611bfc565b92508282019050808211156129c4576129c3612421565b5b92915050565b60006040820190506129df6000830185611f75565b6129ec6020830184611f75565b9392505050565b600081519050612a0281611c06565b92915050565b600060208284031215612a1e57612a1d611bf2565b5b6000612a2c848285016129f3565b91505092915050565b7f496e73756666696369656e7420616c6c6f77616e636500000000000000000000600082015250565b6000612a6b601683612188565b9150612a7682612a35565b602082019050919050565b60006020820190508181036000830152612a9a81612a5e565b9050919050565b612aaa81611f3f565b8114612ab557600080fd5b50565b600081519050612ac781612aa1565b92915050565b600060208284031215612ae357612ae2611bf2565b5b6000612af184828501612ab8565b91505092915050565b7f747278206661696c000000000000000000000000000000000000000000000000600082015250565b6000612b30600883612188565b9150612b3b82612afa565b602082019050919050565b60006020820190508181036000830152612b5f81612b23565b9050919050565b6000606082019050612b7b6000830186611f75565b612b886020830185611f75565b612b956040830184611ed5565b94935050505056fea26469706673582212204a2f7abb4e7cca496b16558834914240f69e4d970e8799dd121452eba0361d8964736f6c63430008160033",
  "linkReferences": {},
  "deployedLinkReferences": {}
}